:100000000C945D000C9485000C9485000C94850084
:100010000C9485000C9485000C9485000C9485004C
:100020000C9485000C9485000C9485000C9485003C
:100030000C9485000C9485000C9485000C9485002C
:100040000C94DB050C9485000C94A9050C94830595
:100050000C9485000C9485000C9485000C9485000C
:100060000C9425060C948500000000080002010095
:100070000003040700000000000000000000000072
:10008000250028002B0000000000240027002A0083
:10009000040404040404040402020202020203032E
:1000A0000303030301020408102040800102040836
:1000B0001020010204081020440711241FBECFEFB6
:1000C000D8E0DEBFCDBF22E0A8E6B1E001C01D92BE
:1000D000A03EB207E1F711E0A0E0B1E0EEE3F7E106
:1000E00002C005900D92A836B107D9F710E0CDE512
:1000F000D0E004C02197FE010E94970BCC35D107B8
:10010000C9F70E9481070C949D0B0C94000090E0AD
:10011000FC01EC55FF4F249180579F4FFC018491C7
:10012000882399F090E0880F991FFC01EA57FF4F50
:10013000A591B491FC01E458FF4F859194918FB73C
:10014000F894EC91E22BEC938FBF089591E090939B
:1001500034028093330210923202109231020895D9
:1001600008950895AF92BF92CF92DF92EF92FF92DF
:100170000F931F93CF93DF936C017B018B01040FCF
:10018000151FEB015E01AE18BF08C017D10759F06B
:100190006991D601ED91FC910190F081E02DC601AD
:1001A0000995892B79F7C501DF91CF911F910F91A7
:1001B000FF90EF90DF90CF90BF90AF900895FC013B
:1001C000538D448D252F30E0842F90E0821B930BBC
:1001D000541710F0CF96089501970895FC01918D62
:1001E000828D981761F0A28DAE0FBF2FB11D5D9665
:1001F0008C91928D9F5F9F73928F90E008958FEF07
:100200009FEF0895FC01918D828D981731F0828DBA
:10021000E80FF11D858D90E008958FEF9FEF089511
:10022000FC01918D228D892F90E0805C9F4F821B75
:1002300091098F739927089585E392E00E94100138
:1002400021E0892B09F420E0822F089580E090E0DE
:10025000892B29F00E941C0181110C940000089543
:10026000FC01A48DA80FB92FB11DA35ABF4F2C912B
:10027000848D90E001968F739927848FA689B78922
:100280002C93A089B1898C91837080648C93938D19
:10029000848D981306C00288F389E02D80818F7DBC
:1002A00080830895EF92FF920F931F93CF93DF9374
:1002B000EC0181E0888F9B8D8C8D98131AC0E889A2
:1002C000F989808185FF15C09FB7F894EE89FF8971
:1002D0006083E889F98980818370806480839FBF0F
:1002E00081E090E0DF91CF911F910F91FF90EF900F
:1002F0000895F62E0B8D10E00F5F1F4F0F7311271F
:10030000E02E8C8D8E110CC00FB607FCFACFE88959
:10031000F989808185FFF5CFCE010E943001F1CFB0
:10032000EB8DEC0FFD2FF11DE35AFF4FF0829FB7CD
:10033000F8940B8FEA89FB8980818062CFCF682F88
:1003400085E392E00C945201CF93DF93EC01888D0A
:100350008823B9F0AA89BB89E889F9898C9185FD40
:1003600003C0808186FD0DC00FB607FCF7CF8C91CE
:1003700085FFF2CF808185FFEDCFCE010E94300155
:10038000E9CFDF91CF91089590E0FC01E859FF4F4C
:100390002491FC01EC55FF4F3491FC01E057FF4FD5
:1003A000E491EE23C9F0222339F0233001F1A8F4BF
:1003B000213019F1223029F1F0E0EE0FFF1FE4584F
:1003C000FF4FA591B4918FB7F894EC91611126C0BD
:1003D00030953E233C938FBF08952730A9F02830F5
:1003E000C9F0243049F7809180008F7D03C080914F
:1003F00080008F7780938000DFCF84B58F7784BDB6
:10040000DBCF84B58F7DFBCF8091B0008F77809359
:10041000B000D2CF8091B0008F7DF9CF3E2BDACFE4
:100420003FB7F8948091CD019091CE01A091CF017A
:10043000B091D00126B5A89B05C02F3F19F00196B9
:10044000A11DB11D3FBFBA2FA92F982F8827BC012E
:10045000CD01620F711D811D911D42E0660F771F56
:10046000881F991F4A95D1F708958F929F92AF9256
:10047000BF92CF92DF92EF92FF926B017C010E94BC
:1004800010024B015C01C114D104E104F104B9F084
:100490000E941002681979098A099B09683E734015
:1004A0008105910580F321E0C21AD108E108F10825
:1004B00088EE880E83E0981EA11CB11CE4CFFF904B
:1004C000EF90DF90CF90BF90AF909F908F90089566
:1004D0002091A901260F3327331F21323105ECF477
:1004E00020910902FC0190E080E0243069F082E074
:1004F0000895A091A9012191AC0147575E4FA40F27
:10050000B52FB11D2C930196861798F38091A90100
:10051000680F6093A90180E0089581E0089510922A
:10052000090281E0809308021092030261E082E1F7
:100530000E94C40161E083E10E94C401E9EBF0E0A4
:1005400080818E7F808380818D7F808388E480930B
:10055000B80085E48093BC000895CF93DF9391E0C9
:10056000909388018823B9F0C091B800D091BA0067
:100570008091BC008A7B8093BC0060E082E10E9495
:10058000C40160E083E10E94C4010E948F02D09305
:10059000BA00C093B800DF91CF9108950895E0911B
:1005A000100280910F02E81730F4F0E0EF5EFD4F8B
:1005B000808190E008958FEF9FEF08959091100251
:1005C00080910F022FEF3FEF981748F4E92FF0E0EA
:1005D000EF5EFD4F208130E09F5F90931002C901D4
:1005E000089580910F0290911002891B990B089534
:1005F000CF92DF92EF92FF920F931F93CF93DF93EF
:100600007C01CB018A0120913402222389F0EB0185
:100610006B01C40ED51ECC15DD0569F06991D701BB
:10062000ED91FC910190F081E02DC7010995F3CF88
:10063000642F0E946802C801DF91CF911F910F9132
:10064000FF90EF90DF90CF900895CF93DF931F92AC
:10065000CDB7DEB76983209134022223F9F02091CF
:100660003102203258F021E030E0FC013383228354
:1006700090E080E00F90DF91CF9108958091320259
:10068000E82FF0E0E859FE4F998190838F5F8093C7
:1006900032028093310281E090E0ECCF61E0CE0144
:1006A00001960E946802F7CFCF92DF92EF92FF92FD
:1006B0000F931F93CF93DF93D091310281E0D1321A
:1006C00008F09CC0C09133020E9410026B017C01B3
:1006D0008091090281116CC082E08093090281E05F
:1006E000809308028FEF8093070210920602D09346
:1006F0000502A8E6B1E0E3EEF1E080E0D8138DC09A
:100700001092040280910402CC0FC82BC093040203
:1007100080910302813009F084C0109203020E948C
:1007200010026B017C01809104028093BB008091D8
:100730000B0290910C02A0910D02B0910E02892B38
:100740008A2B8B2BA1F00E94100200910B021091BA
:100750000C0220910D0230910E026C197D098E0958
:100760009F09061717072807390708F442C0809128
:10077000BC0083FDD8CF85EC8093BC000E941002A2
:100780006B017C0180910902823009F44CC0809198
:1007900007028F3F09F469C080910702803209F493
:1007A00066C080910702803309F463C084E026C0EC
:1007B00080910B0290910C02A0910D02B0910E025B
:1007C000892B8A2B8B2B09F483CF0E941002009176
:1007D0000B0210910C0220910D0230910E026C1947
:1007E0007D098E099F09061717072807390708F0A2
:1007F0006FCF80910A020E94AD0285E01092320212
:100800001092310210923402DF91CF911F910F911B
:10081000FF90EF90DF90CF9008959D9191938F5F1F
:100820006DCF85EEA9CF80910B0290910C02A09123
:100830000D02B0910E02892B8A2B8B2B09F4A2CFCB
:100840000E94100200910B0210910C0220910D02E7
:1008500030910E026C197D098E099F090617170742
:100860002807390708F08ECFC4CF80E0C7CF82E0D9
:10087000C5CF83E0C3CF90E080E00895DC01ED9127
:10088000FC910190F081E02D0994CF93DF93282F04
:1008900030E0EAE0F0E0C901BF010E94770BEC0113
:1008A000C9018C1B9D0BBF010E94770BCB01C09629
:1008B0000E949F01CE01C096DF91CF910C949F01C1
:1008C000009769F0FC0101900020E9F73197AF0132
:1008D000481B590BBC0185E392E00C94B20090E0F8
:1008E00080E0089584E291E00E9460048AE291E051
:1008F0000E94600464E670E080E090E00E943502AF
:10090000F0E0E0E00994CF92DF92EF92FF920F9334
:100910001F930E9410026B017C01809109028111DA
:1009200063C081E080930902809308029FEF909357
:100930000702109206021092050280930402809131
:100940000402806D8093040280910302813009F0DB
:100950007CC0109203020E9410026B017C01809106
:1009600004028093BB0080910B0290910C02A09135
:100970000D02B0910E02892B8A2B8B2BA1F00E94C5
:10098000100200910B0210910C0220910D02309187
:100990000E026C197D098E099F0906171707280793
:1009A000390708F442C08091BC0083FDD8CF85ECA4
:1009B0008093BC000E9410026B017C0180910902AF
:1009C000813009F444C080910602811162C0809197
:1009D0000602A3EEB1E0E1E1F2E090E0981751F1F8
:1009E0002D9121939F5FFACF80910B0290910C0281
:1009F000A0910D02B0910E02892B8A2B8B2B09F44A
:100A00008CCF0E94100200910B0210910C022091D9
:100A10000D0230910E026C197D098E099F0906178F
:100A200017072807390708F078CF80910A020E943B
:100A3000AD0280E01092100280930F021F910F917F
:100A4000FF90EF90DF90CF90089585EEB1CF809129
:100A50000B0290910C02A0910D02B0910E02892B15
:100A60008A2B8B2B09F4AACF0E94100200910B0253
:100A700010910C0220910D0230910E026C197D092B
:100A80008E099F09061717072807390708F096CF20
:100A9000CCCF81E09ECF85ED8093BC0080910B028E
:100AA00090910C02A0910D02B0910E020796A11D2B
:100AB000B11D23E0B695A795979587952A95D1F70F
:100AC0002091BC0024FD03C01092090208954091BA
:100AD0000B0250910C0260910D0270910E02452B99
:100AE000462B472B69F30097A105B10541F025E39B
:100AF0002A95F1F700000197A109B109E1CF809192
:100B00000A020C94AD021F920F920FB60F9211249D
:100B10002F933F934F935F936F937F938F939F9305
:100B2000AF93BF93EF93FF9385E392E00E94300170
:100B3000FF91EF91BF91AF919F918F917F916F91B5
:100B40005F914F913F912F910F900FBE0F901F908B
:100B500018951F920F920FB60F9211242F938F9317
:100B60009F93EF93FF93E0914502F09146028081BD
:100B7000E0914B02F0914C0282FD1BC0908180916C
:100B80004E028F5F8F7320914F02821741F0E091E8
:100B90004E02F0E0EB5CFD4F958F80934E02FF918B
:100BA000EF919F918F912F910F900FBE0F901F90FB
:100BB00018958081F4CF1F920F920FB60F921124D7
:100BC0002F933F938F939F93AF93BF938091D501C2
:100BD0009091D601A091D701B091D8013091CC016C
:100BE00023E0230F2D3758F50196A11DB11D209349
:100BF000CC018093D5019093D601A093D701B093F7
:100C0000D8018091CD019091CE01A091CF01B091FA
:100C1000D0010196A11DB11D8093CD019093CE010D
:100C2000A093CF01B093D001BF91AF919F918F91CD
:100C30003F912F910F900FBE0F901F90189526E8AF
:100C4000230F0296A11DB11DD2CF1F920F920FB696
:100C50000F9211242F933F934F935F936F937F9342
:100C60008F939F93AF93BF93EF93FF938091B900BE
:100C7000887F803609F44AC0F0F5883209F4A7C0AD
:100C800018F5803109F49BC0B8F4882309F4F9C041
:100C9000883009F494C0FF91EF91BF91AF919F917B
:100CA0008F917F916F915F914F913F912F910F9015
:100CB0000FBE0F901F901895883109F488C08032BC
:100CC00051F78093070214C0803409F49DC040F4AA
:100CD0008033B9F38833F9F68093070285ECB0C00E
:100CE000803509F485C0883509F496C0883499F6B2
:100CF0000E944B05D0CF883909F48CC038F588376D
:100D000029F050F4883611F0803729F683E080937B
:100D100009021092CB0157C0883809F47BC0803992
:100D200019F0803809F0B7CF8091CB01803208F0FC
:100D300071C0E091CB0181E08E0F8093CB01809157
:100D4000BB00F0E0E555FE4F80833DC0803B39F0AD
:100D5000E0F4803A09F479C0883A09F09CCF84E045
:100D6000809309021092AA011092A901E091D30187
:100D7000F091D40109958091A90181110FC081E002
:100D80008093A9011092890109C0803C09F4A6CF83
:100D9000883C09F4A3CF883B09F07DCFE091AA01FC
:100DA00081E08E0F8093AA01F0E0E757FE4F80812B
:100DB0008093BB009091AA018091A90129C08091E4
:100DC00004028093BB0085EC8093BC0064CF9091BB
:100DD000060280910502981758F5E091060281E01D
:100DE0008E0F80930602F0E0ED51FE4F8081E9CF37
:100DF000E091060281E08E0F809306028091BB0095
:100E0000F0E0ED51FE4F8083909106028091050243
:100E10009817C8F285E8D8CFE091060281E08E0FDE
:100E2000809306028091BB00F0E0ED51FE4F80837D
:100E30008091080281115CCF81E08093030284EAF3
:100E40008093BC001092090226CF85EC8093BC00F1
:100E5000109209028091CB01803230F4E091CB01F5
:100E6000F0E0E555FE4F10826091CB0170E0E0911B
:100E7000D101F091D2018BEA91E009951092CB015A
:100E80000ACF1092070234CFE5E3F2E01382128218
:100E900088EE93E0A0E0B0E084839583A683B783D7
:100EA00024E031E03183208325EC30E0358724874E
:100EB00024EC30E03787268720EC30E0318B208B24
:100EC00021EC30E0338B228B22EC30E0358B248B0D
:100ED00026EC30E0378B268B118E128E138E148EFB
:100EE000E2EDF2E01382128284839583A683B783B6
:100EF00086E191E091838083F093DF02E093DE024C
:100F00000895CF93DF9300D000D000D01F92CDB7CB
:100F1000DEB7789484B5826084BD84B5816084BD79
:100F200085B5826085BD85B5816085BD80916E0087
:100F3000816080936E0010928100809181008260B8
:100F400080938100809181008160809381008091F5
:100F500080008160809380008091B10084608093E4
:100F6000B1008091B00081608093B00080917A00E0
:100F7000846080937A0080917A00826080937A0006
:100F800080917A00816080937A0080917A008068F5
:100F900080937A001092C1008CE291E09093DC0182
:100FA0008093DB0187E00E94870086E00E94870033
:100FB00085E00E948700E0914502F091460282E0C0
:100FC0008083E0914102F09142021082E09143025D
:100FD000F09144028FEC808310924D02E09149021F
:100FE000F0914A0286E08083E0914702F091480246
:100FF000808180618083E0914702F0914802808186
:1010000088608083E0914702F09148028081806887
:101010008083E0914702F091480280818F7D808338
:101020001092100210920F021092320210923102AE
:101030000E948F0280EB90E09093D4018093D301C3
:1010400081EB90E09093D2018093D1010AE02AEFE6
:10105000E22EF12C3AEFB32E7724739490E0C92E50
:1010600090E0D92E85E392E00E941001181619062F
:101070000CF04DC285E392E00E94EE008A379105A4
:1010800009F0D0C07092E20187E391E00E94600411
:101090008AE291E00E9460042FB7F8948091D50114
:1010A0009091D601A091D701B091D8012FBF909314
:1010B000DA018093D9012FB7F8948091D5019091EE
:1010C000D601A091D701B091D8012FBF4091D9018D
:1010D0005091DA01052E000C660B770B841B950BE3
:1010E000A60BB70B88359B41A105B10508F054C08C
:1010F0001091DF01812F0E948700E12FF0E0E85975
:10110000FF4FE491E33071F148F4E130B9F0E2309F
:1011100021F161E0812F0E94C40114C0E73061F128
:10112000E83091F1E430A9F78091800080628093EB
:101130008000F0928B00E0928A0004C084B5806841
:1011400084BDB7BC60E08091E0010E94C40161E011
:101150008091E1010E94C401AECF84B5806284BD5C
:10116000B8BCF0CF80918000806880938000F092BE
:101170008900E0928800E6CF8091B000806880937B
:10118000B000B092B300DECF8091B0008062809357
:10119000B000B092B400D6CF2FB7F8948091D501AB
:1011A0009091D601A091D701B091D8012FBF909313
:1011B000DA018093D9012FB7F8948091D5019091ED
:1011C000D601A091D701B091D8012FBF4091D9018C
:1011D0005091DA01052E000C660B770B841B950BE2
:1011E000A60BB70B803A9F40A105B10508F08FC14F
:1011F0001091DF01812F0E94870060E0812F0E9403
:10120000C40160E08091E0010E94C40160E080912F
:10121000E1010E94C40160EA7FE080E090E00E946A
:101220003502C9CF8337910509F044C2CE0101963A
:101230004C0198E7A916A9F085E392E00E941001FD
:1012400018161906B4F785E392E00E94EE00A82E66
:10125000D4018D934D01B2E78B13EBCF0E94720442
:10126000EBCF898180531A811053809F100D112478
:101270008B8180538C80E0ED8E0E809F800C11243A
:101280008D8180539E809E0E809F900C11248DE353
:1012900091E00E946004812F0E94450488E491E05F
:1012A0000E946004882D0E94450488E491E00E9419
:1012B0006004892D0E9445048AE291E00E94600446
:1012C00088E60E94A60062E070E08091DE029091C4
:1012D000DF020E943E048091DE029091DF020E94B4
:1012E00054038091DE029091DF020E94830480917A
:1012F000DE029091DF02DC01ED91FC910284F38526
:10130000E02D0995682E88E60E94A60062E070E054
:101310008091DE029091DF020E943E048091DE0205
:101320009091DF02662D6F7BDC01ED91FC910190C5
:10133000F081E02D09958091DE029091DF020E94FC
:10134000540388E60E94A60062E070E08091DE020D
:101350009091DF020E943E048091DE029091DF02B4
:101360000E9454038091DE029091DF020E94830468
:101370008091DE029091DF02DC01ED91FC9102840C
:10138000F385E02D099586FF8BC121E01C3008F420
:1013900020E01C3008F01C50111101C01CE0812F0E
:1013A000602F0E948B0B182F1295107F190F30E0C1
:1013B00085E0220F331F8A95E1F72064122B88E61F
:1013C0000E94A60062E070E08091DE029091DF0250
:1013D0000E943E048091DE029091DF02DC01ED91DB
:1013E000FC910190F081E02D612F09958091DE0242
:1013F0009091DF020E94540388E60E94A60061E0FB
:1014000070E08091DE029091DF020E943E04A09184
:10141000DE02B091DF02882D602F0E948B0B829537
:10142000807F682F690FED91FC9111970190F081F9
:10143000E02DCD0109958091DE029091DF020E949E
:10144000540388E60E94A60070E060E08091DE020E
:101450009091DF020E943E04A091DE02B091DF0273
:10146000892D602F0E948B0B8295807F682F690FDA
:10147000ED91FC9111970190F081E02DCD0109953E
:101480008091DE029091DF020E94540388E60E9460
:10149000A6006FE070E08091DE029091DF020E9472
:1014A0003E048091DE029091DF020E9454038091FD
:1014B000DE029091DF020E9483048091DE0290910F
:1014C000DF02DC01ED91FC910284F385E02D0995AA
:1014D000182F88E60E94A6006FE070E08091DE027F
:1014E0009091DF020E943E048091DE029091DF0223
:1014F000612F6F77DC01ED91FC910190F081E02D7F
:1015000009958091DE029091DF020E945403809140
:10151000E201882309F4B8C08AE491E00E946004E3
:101520008091DB019091DC010E94600486E491E0EF
:101530000E9460048CE591E00E94600488E60E94AD
:10154000A60062E070E08091DE029091DF020E94CE
:101550003E048091DE029091DF020E94540380914C
:10156000DE029091DF020E9483048091DE0290915E
:10157000DF02DC01ED91FC910284F385E02D0995F9
:1015800021E0AC014074552786FF20E02093DD0167
:10159000282F22952F70382F3F70452B09F491C0CA
:1015A00085FB992790F99093DE012170832F209F6E
:1015B000800D11240E9445048AE390E00E949F015F
:1015C00088E60E94A60061E070E08091DE029091C2
:1015D000DF020E943E048091DE029091DF020E94B1
:1015E00054038091DE029091DF020E948304809177
:1015F000DE029091DF02DC01ED91FC910284F38523
:10160000E02D0995982F92959F708F70909F800D77
:1016100011240E9445048AE390E00E949F0188E61D
:101620000E94A60070E060E08091DE029091DF02EF
:101630000E943E048091DE029091DF020E945403DA
:101640008091DE029091DF020E9483048091DE028D
:101650009091DF02DC01ED91FC910284F385E02D95
:101660000995982F92959F708F70909F800D1124EF
:101670000E9445048AE291E00E94600468EE73E0F3
:1016800080E090E00E943502C114D10409F4EACC54
:101690000E941C01882309F4E5CC0E940000DECCE6
:1016A000812F602F0E948B0B182F1295107F190F1E
:1016B0001F7B85CE8237910509F029CF0E947204E5
:1016C00026CF237073CFAA1BBB1B51E107C0AA1FF3
:1016D000BB1FA617B70710F0A61BB70B881F991FD3
:1016E0005A95A9F780959095BC01CD01089597FB77
:1016F000072E16F4009407D077FD09D00E94630BE3
:1017000007FC05D03EF4909581959F4F0895709504
:1017100061957F4F0895991B79E004C0991F961732
:1017200008F0961B881F7A95C9F780950895EE0FEB
:0E173000FF1F0590F491E02D0994F894FFCF6F
:10173E00000000005201B200DF00A4011001EE0013
:10174E000201000000002503F8023B04CE02F10264
:10175E00DE02CF027265736574000A00526F626F0B
:10176E0063656E7465720073746172740053657490
:10177E00205254433A2020003A006E756D62657215
:10178E00206F66207465616D3A2020002020202095
:08179E005554433A20200000DD
:00000001FF
